{
  "contractName": "Gallery",
  "abi": [
    {
      "anonymous": false,
      "inputs": [
        {
          "indexed": false,
          "internalType": "uint256",
          "name": "id",
          "type": "uint256"
        },
        {
          "indexed": false,
          "internalType": "string",
          "name": "Hash",
          "type": "string"
        },
        {
          "indexed": false,
          "internalType": "string",
          "name": "name",
          "type": "string"
        },
        {
          "indexed": false,
          "internalType": "address",
          "name": "author",
          "type": "address"
        }
      ],
      "name": "Details",
      "type": "event"
    },
    {
      "constant": true,
      "inputs": [],
      "name": "count",
      "outputs": [
        {
          "internalType": "uint256",
          "name": "",
          "type": "uint256"
        }
      ],
      "payable": false,
      "stateMutability": "view",
      "type": "function"
    },
    {
      "constant": true,
      "inputs": [
        {
          "internalType": "uint256",
          "name": "",
          "type": "uint256"
        }
      ],
      "name": "photos",
      "outputs": [
        {
          "internalType": "uint256",
          "name": "id",
          "type": "uint256"
        },
        {
          "internalType": "string",
          "name": "Hash",
          "type": "string"
        },
        {
          "internalType": "string",
          "name": "name",
          "type": "string"
        },
        {
          "internalType": "address",
          "name": "author",
          "type": "address"
        }
      ],
      "payable": false,
      "stateMutability": "view",
      "type": "function"
    },
    {
      "constant": false,
      "inputs": [
        {
          "internalType": "string",
          "name": "Name",
          "type": "string"
        },
        {
          "internalType": "string",
          "name": "Hash",
          "type": "string"
        }
      ],
      "name": "Add",
      "outputs": [],
      "payable": false,
      "stateMutability": "nonpayable",
      "type": "function"
    }
  ],
  "bytecode": "0x6080604052600060015534801561001557600080fd5b506107b3806100256000396000f3fe608060405234801561001057600080fd5b50600436106100415760003560e01c806306661abd14610046578063725c776614610064578063af2a5d6f146101b6575b600080fd5b61004e610303565b6040518082815260200191505060405180910390f35b6101b46004803603604081101561007a57600080fd5b810190808035906020019064010000000081111561009757600080fd5b8201836020820111156100a957600080fd5b803590602001918460018302840111640100000000831117156100cb57600080fd5b91908080601f016020809104026020016040519081016040528093929190818152602001838380828437600081840152601f19601f8201169050808301925050505050505091929192908035906020019064010000000081111561012e57600080fd5b82018360208201111561014057600080fd5b8035906020019184600183028401116401000000008311171561016257600080fd5b91908080601f016020809104026020016040519081016040528093929190818152602001838380828437600081840152601f19601f820116905080830192505050505050509192919290505050610309565b005b6101e2600480360360208110156101cc57600080fd5b8101908080359060200190929190505050610545565b6040518085815260200180602001806020018473ffffffffffffffffffffffffffffffffffffffff1673ffffffffffffffffffffffffffffffffffffffff168152602001838103835286818151815260200191508051906020019080838360005b8381101561025e578082015181840152602081019050610243565b50505050905090810190601f16801561028b5780820380516001836020036101000a031916815260200191505b50838103825285818151815260200191508051906020019080838360005b838110156102c45780820151818401526020810190506102a9565b50505050905090810190601f1680156102f15780820380516001836020036101000a031916815260200191505b50965050505050505060405180910390f35b60015481565b600082511161031757600080fd5b61031f6106c5565b604051806080016040528060015481526020018281526020018381526020013373ffffffffffffffffffffffffffffffffffffffff1681525060008060015481526020019081526020016000206000820151816000015560208201518160010190805190602001906103929291906106d9565b5060408201518160020190805190602001906103af9291906106d9565b5060608201518160030160006101000a81548173ffffffffffffffffffffffffffffffffffffffff021916908373ffffffffffffffffffffffffffffffffffffffff1602179055509050507fb2f93d0e9cfc617800cd74931b3a7b058d85b0af184d2c4fb44f5ab33ab40a1e6001548284336040518085815260200180602001806020018473ffffffffffffffffffffffffffffffffffffffff1673ffffffffffffffffffffffffffffffffffffffff168152602001838103835286818151815260200191508051906020019080838360005b8381101561049d578082015181840152602081019050610482565b50505050905090810190601f1680156104ca5780820380516001836020036101000a031916815260200191505b50838103825285818151815260200191508051906020019080838360005b838110156105035780820151818401526020810190506104e8565b50505050905090810190601f1680156105305780820380516001836020036101000a031916815260200191505b50965050505050505060405180910390a15050565b6000602052806000526040600020600091509050806000015490806001018054600181600116156101000203166002900480601f0160208091040260200160405190810160405280929190818152602001828054600181600116156101000203166002900480156105f75780601f106105cc576101008083540402835291602001916105f7565b820191906000526020600020905b8154815290600101906020018083116105da57829003601f168201915b505050505090806002018054600181600116156101000203166002900480601f0160208091040260200160405190810160405280929190818152602001828054600181600116156101000203166002900480156106955780601f1061066a57610100808354040283529160200191610695565b820191906000526020600020905b81548152906001019060200180831161067857829003601f168201915b5050505050908060030160009054906101000a900473ffffffffffffffffffffffffffffffffffffffff16905084565b600160008154809291906001019190505550565b828054600181600116156101000203166002900490600052602060002090601f016020900481019282601f1061071a57805160ff1916838001178555610748565b82800160010185558215610748579182015b8281111561074757825182559160200191906001019061072c565b5b5090506107559190610759565b5090565b61077b91905b8082111561077757600081600090555060010161075f565b5090565b9056fea265627a7a72315820de511777e443641c6e73852a9536a8640e37de6c11f72eb0eb74a9d0865f2a5164736f6c63430005100032",
  "source": "pragma solidity ^0.5.0;\r\n\r\ncontract Gallery{\r\n\tstruct Pic{\r\n\t\tuint id;\r\n\t\tstring Hash;\r\n\t\tstring name;\r\n\t\taddress author;\r\n\t}\r\n\tevent Details(\r\n\t\tuint id,\r\n\t\tstring Hash,\r\n\t\tstring name,\r\n\t\taddress author\r\n\t);\r\n\tmapping(uint => Pic) public photos;\r\n\tuint public count=0;\r\n\tfunction increment() internal{\r\n\t\tcount++;\r\n\t} \r\n\tfunction Add(string memory Name,string memory Hash) public{\r\n\t\trequire(bytes(Name).length > 0);\r\n\t\tincrement();\r\n\t\tphotos[count] = Pic(count,Hash,Name,msg.sender);\r\n\t\temit Details(count,Hash,Name,msg.sender);\r\n\t}\r\n}",
  "sourcePath": "C:/Users/HP/Desktop/Gallery/src/contracts/Gallery.sol",
  "compiler": {
    "name": "solc",
    "version": "0.5.16+commit.9c3226ce.Emscripten.clang"
  },
  "schemaVersion": "3.3.4",
  "updatedAt": "2021-03-16T14:26:07.317Z",
  "networkType": "ethereum",
  "devdoc": {
    "methods": {}
  },
  "userdoc": {
    "methods": {}
  }
}